:08000000803102288731F02F46
:1001B400FE0012001E00FE0BDB28003472087104DE
:1001C4007004031908008030F2060800F300F201FD
:1001D400731CF0287008F1007108F2070310F00D89
:1001E4000310F30C7308031DEA2872080800F401D5
:1001F400F501701C01297208F4077308F53D0130FC
:10020400F235F30D890B02290130F136F00C890B1C
:10021400072970087104031DFB287508F100740890
:10022400F000080039083804370403191B2980300A
:10023400B9063A08AA003B08AB003C08AC003708F2
:10024400AD003808AE003908AF008531F4252A081E
:10025400B7002B08B8002C08B9000800003400349B
:10026400403400340A344234CD34543441340034FC
:1002740040344134CD349F34423433343534423401
:10028400C334ED344034CD348C343F340034B8348A
:100294004234003404344234FD01F91F5829F8096A
:1002A400F909F80A0319F90AFD01FD0A7808F000B2
:1002B4007908F100F2018E30FB007B08F3007D0821
:1002C400FC007C08F400833103237008F8007108F3
:1002D400F9007208FA000800F21F7D297008003C3A
:1002E400F0007108031C710F003CF1007208031C3C
:1002F400720F803CF200F51F8C297308003CF30058
:100304007408031C740F003CF4007508031C750F7B
:10031400803CF5008030F2068030F50675087202E4
:10032400031D080074087102031D0800730870029D
:100334000800720871047004031DA729730886005D
:1003440087010030C03FC13F080072087F39F400C4
:10035400F501F435F50D7308860087017408C03F74
:100364007508C13F710D710D0139F400F501730871
:10037400860087017408810441317508810473087B
:1003840086008701823081074131FF30813D7F3112
:10039400720880393F38F200F1130800A7018E304B
:1003A400A4002408A600A31FE429A009A109A20906
:1003B400A309A00A0319A10A0319A20A0319A30A8B
:1003C400A701A70AFF3023050319F4290130A33636
:1003D400A20CA10CA00C890BE9290130A40024086B
:1003E400A607E4292008F0002108F1002208F20001
:1003F4002608A4002408F3002708A5002508F40013
:10040400833103237008A0007108A1007208A200C0
:1004140008005208F0005308F1005408F20080313B
:10042400E02082317008D8007108D9007208DA001F
:100434005808C8005908C9005A08CA008631E82675
:1004440082314808DB004908DC004A08DD0000303E
:10045400AA008030AB003F30AC005B08AD005C0804
:10046400AE005D08AF008531F42582312A08B7005B
:100474002B08B8002C08B9000030BA008030BB004B
:100484003F30BC008431CB243708D5003808D6006F
:100494003908D7005508D2005608D3005708D400AD
:1004A40008002030860001308700A030840000302E
:1004B40085001E30DE0016001A00DE0B5D2A2100C6
:1004C400DC01DD0103302000DE005E08F0002100C5
:1004D4005C088031E8208231A03E86008701403FDD
:1004E4002000D200413FD300423FD40082310B228E
:1004F40082315208DF005308E0005408E100033061
:10050400E2006208F00021005C088031E8208231BA
:10051400BE3E8600870120005F08C03F6008C13FDF
:100524006108C23F01302100DC070030DD3D5D0879
:10053400803A2000DE0080305E02031DA42A0A30C7
:1005440021005C02031C642A803102283D08F1006A
:100554003C08F0000330F2000030F3008031F92051
:1005640082313A08700784003B08713D8500003FE2
:10057400BE00013FBF00023FC0003C083D04031918
:10058400FC2AFF30BC07FF30BD3D3D08F1003C08AC
:10059400F0000330F2000030F3008031F9208231A2
:1005A4003A08700784003B08713D8500003FAA00AB
:1005B400013FAB00023FAC003E08F8003F08F900E1
:1005C4004008FA003708FB003808FC003908FD0031
:1005D40085315A2582317808AD007908AE007A0851
:1005E400AF008531F42582312A08BE002B08BF00F4
:1005F4002C08BE2A3E08B7003F08B8004008B900DE
:100604000800730803190B2B720871047004031D8E
:100614001C2B0030F0000030F1000030F200080024
:100624000130F5007508F3070130F236F10CF00CD7
:10063400890B172BFE3072050319352B122B013051
:10064400F5007508F3070130F00700300318013096
:10065400F107003003180130F2070130F236F10CD3
:10066400F00C890B302BFF3072050319462B212B1C
:1006740002307302031C482B0130F3020130F035C1
:10068400F10DF20D890B412BF11F3A2B7318502BEE
:10069400FF30F0057F30F105FF30F2050310F30C55
:1006A4007308F500F601F7011030F535F60DF70D76
:1006B400890B572B7508F0047608F1047708F204C7
:1006C400740803190800F21708004308420441049F
:1006D400031D732B0030C1000030C2000030C30082
:1006E400080043087F39C600C701C635C70D460850
:1006F400C4074708C53D420D420D0139C600C70174
:100704004608C4074708C53DC51F932B2230E300A4
:100714000030E4000030C1000030C2000030C300EB
:1007240008004508803AC60081304602031D9C2B10
:1007340000304402031CC22B22302000E3000030AE
:10074400E4004108F0004208F1004308F2000030E0
:10075400F3000030F4000030F50081316E21833164
:100764000318BB2BFF30C1007F30C200FF30C30031
:100774000800FF30C1007F30C2007F30C300080092
:1007840020004508C7004408C600470DC70CC60C26
:100794004308460680394606C30044080139C600AA
:1007A400C60CC60C420846067F394606C20008003D
:1007B4007008F4007108F5007208F6000310750D56
:1007C400760DF7007708FD007D08031DF22B00303D
:1007D400F3000030F2000030F1000030F0000800B7
:1007E4007008F4007108F5007208F6001730F63648
:1007F400F50CF40C890BF92B7408F7007708F80052
:10080400F117FF30F005FF30F1050030F2057008F4
:10081400F9007108FA007208FB00FC018E30FD0239
:10082400FD1F272C7D08803A8F3E031CE92B0130E5
:10083400FC36FB0CFA0CF90C890B1A2C0130F40071
:100844007408FD070319382C192C18307D0203187D
:10085400E92B7D080319382C0130F935FA0DFB0D0D
:10086400FC0D890B2F2C0130FD022B2C7808031969
:10087400462CF909FA09FB09FC09F90A0319FA0AD1
:100884000319FB0A0319FC0A7C08F3007B08F20035
:100894007A08F1007908F00008003708F0003808F9
:1008A400F1003908F2003E30BA003A08F300813111
:1008B4009B218431BF1F7D2C3708F0003808F100DC
:1008C4003908F2000030F3000030F4000030F50085
:1008D40081316E2184310318762C0030B7008030CA
:1008E400B800BF30B90008000030B7000030B800CD
:1008F4000030B900080000303F02153003193E02F1
:10090400031808003708F0003808F1003908F2002D
:100914008331DA2384317308A3007208A2007108BA
:10092400A1007008A0008131D02184312008BB00CF
:100934002108BC002208BD003708F0003808F10087
:100944003908F2003B08F3003C08F4003D08F500C8
:1009540081316E2184310318C42C0030AA00803008
:10096400AB00BF30AC003B08AD003C08AE003D0816
:10097400AF008531F4252A08B7002B08B8002C08ED
:10098400B90008003B08B7003C08B8003D08B900AE
:1009940008003A08BD003B08BE003C08BF00031035
:1009A4003E0D3F0DC0004008C5004508031DE12C65
:1009B4000030B7000030B8000030B9000800370834
:1009C400BD003808BE003908BF0003103E0D3F0DBE
:1009D400C0004008C6004608031DF72C0030B700CD
:1009E4000030B8000030B90008000030C200003008
:1009F400C3000030C40089304607BD003D08C5026D
:100A04003C08BD003D08C6003908BD003D08C606C7
:100A14008030BD003D08C605BB17FF30BA05FF3066
:100A2400BB050030BC05B817FF30B705FF30B8056B
:100A34000030B9051830BD003D08C1000130C23591
:100A4400C30DC40D890B212D39083C02031D302D23
:100A540038083B02031D302D37083A02031C392D98
:100A64003708BA023808BB3B3908BC3B4214013092
:100A7400BA35BB0DBC0D890B3A2D0130C102031DE3
:100A8400202D4208F0004308F1004408F200450814
:100A9400BD003D08F3004608BE003E08F400833163
:100AA40003237008B7007108B8007208B900080081
:100AB4007808A0007908A1007A08A2000310210D8B
:100AC400220DA3002308A4002408031D702D003068
:100AD400F8000030F9000030FA0008007B08A0009C
:100AE4007C08A1007D08A2000310210D220DA300A3
:100AF4002308A9002908031D862D0030F8000030C2
:100B0400F9000030FA00080029087B3EA000200804
:100B1400A4077A08A0002008A9007D08A0002008E6
:100B2400A9068030A0002008A905F917FC17FF309A
:100B3400FB05FF30FC050030FD050030A50000304A
:100B4400A6000030A7000730A0002008A800781CE9
:100B5400B12D7B08A5077C08A63D7D08A73D013083
:100B6400FA36F90CF80C890BB22D0130FB35FC0D6B
:100B7400FD0D890BB82D0130A802031DA92D0930E4
:100B8400A0002008A800781CCD2D7B08A5077C08B0
:100B9400A63D7D08A73D0130FA36F90CF80C890B07
:100BA400CE2D0130A736A60CA50C890BD42D01300F
:100BB400A802031DC52D2508F0002608F10027080A
:100BC400F2002408A0002008F3002908A10021084D
:100BD400F400833103237008F8007108F9007208E7
:100BE400FA0008002A08B0002B08B1002C08B20053
:100BF4000310310D320DB3003308B6002D08B000D8
:100C04002E08B1002F08B2000310310D320DB300CD
:100C14003308B500360803191B2E350836020318AD
:100C2400222E3508B0003608B00219303002031CF9
:100C3400222E2D08AA002E08AB002F08AC000800B5
:100C4400350803190800360835020318312E360812
:100C5400B0003508B002193030020318080006301D
:100C6400B0003008B400AC1BB417AF1B3417AB177B
:100C7400FF30AA05FF30AB050030AC05AE17FF30DE
:100C8400AD05FF30AE050030AF0535083602031858
:100C94006D2E0130AD35AE0DAF0D890B4C2E0130EC
:100CA400B502350836060319682E0130B40234083B
:100CB40007390319682E4B2E0130AC36AB0CAA0C45
:100CC400890B5F2E0130B0003008B60736083506B0
:100CD4000319922E5E2E360835020318922E013027
:100CE400AA35AB0DAC0D890B722E0130B602350856
:100CF400360603198E2E0130B4023408073903195D
:100D04008E2E712E0130AF36AE0CAD0C890B852EB4
:100D14000130B0003008B50736083506031D842EAF
:100D2400B41FA42EFF30AA06FF30AB06FF30AC067A
:100D34000130AA07003003180130AB070030031854
:100D44000130AC07341FB62EFF30AD06FF30AE06BF
:100D5400FF30AF060130AD07003003180130AE0795
:100D6400003003180130AF07B4012A08AD072B087F
:100D7400AE3D2C08AF3DAF1FD12EFF30AD06FF3086
:100D8400AE06FF30AF060130AD0700300318013066
:100D9400AE07003003180130AF07B401B40A2D08C0
:100DA400F0002E08F1002F08F2003608B0003008D9
:100DB400F3003408B1003108F400833103237008D0
:100DC400AA007108AB007208AC0008004A08490484
:100DD4004804031DF42E0030C8008030C9003F30A1
:100DE400CA0008007230F0003130F1004430F200E3
:100DF4004808F3004908F4004A08F50081316E21DF
:100E040086310318102F2230E3000030E400FF3055
:100E1400C8007F30C9007F30CA0008004808F000CD
:100E24004908F1004A08F2004930F3003A30F4006E
:100E3400C430F50081316E21863103182C2F223005
:100E4400E3000030E4000030C8000030C900003086
:100E5400CA0008004808F0004908F1004A08F200F6
:100E64000030F3000030F4000030F50081316E21D1
:100E7400863103183F2F0130402F0030CB004B0840
:100E8400D10051080319552F4808F0004908F10012
:100E94004A08F2008031E02086317008C8007108E9
:100EA400C9007208CA00AA30F800B830F9003F300F
:100EB400FA004808FB004908FC004A08FD00853197
:100EC4005A2586317808C8007908C9007A08CA000A
:100ED4004808B7004908B8004A08B90084314F24CB
:100EE40086313708CC003808CD003908CE004C08CC
:100EF400F0004D08F1004E08F2008331DA23863108
:100F04007108D0007008CF005008F9004F08F800AD
:100F140081314E2186317808B7007908B8007A0803
:100F2400B9004808BA004908BB004A08BC0081312E
:100F3400142186313708C8003808C9003908CA00A6
:100F44004808B7004908B8004A08B9000030BA0098
:100F54008830BB000930BC000030BD008231A822BB
:100F640086313708C1003808C2003908C300500868
:100F7400C5004F08C4008331672386314108C80087
:100F84004208C9004308CA00510803190800480A66
:100F94007F30031949067F3003194A06031DDA2FEF
:100FA40000302000C8000030C9000030CA0008002A
:100FB40020004808B7004908B8004A08B9000030C2
:100FC400BA008030BB003F30BC008431CB243708EA
:100FD400C8003808C9003908CA0008003030840045
:100FE4008130850020308600013087001E3080313A
:100FF400DA20E301E40120008231532A00348034F2
:101004003F34723431343F34FE3475343E34583412
:1010140063343D3495341D343C34C534AE343A34F1
:101024007934213439349434803437349334A734C4
:08103400353456341534343410
:00000001FF
